:020000040000FA
:0400000080316028C3
:08000800803157282030B700B9
:100010000310AB0DAC0DAD0DAE0D0310A30DA40D73
:10002000A50DA60D031C1C282708AB072808AC3D0E
:100030002908AD3D2A08AE3DB70B0828080020303E
:10004000B700A701A801A901AA010310AF0DB00DC7
:10005000B10DB20D0310A30DA40DA50DA60DA70D96
:10006000A80DA90DAA0D2A082E02031D4128290852
:100070002D02031D412828082C02031D41282708B2
:100080002B0203194528031854282B08A7022C0813
:10009000031C2C0FA8022D08031C2D0FA9022E08EB
:1000A000031C2E0FAA022F14B70B252808002000CE
:1000B0007F08B8002008B3002108B40082310E2A5E
:1000C000210099138730190578389900FC301905FB
:1000D0000238990023008C018E0121009D019E01B0
:1000E000043022009100920104309300940120001A
:1000F0007F30A0003D30A1002930A2008031A20B4A
:100100007F288031A10B7C288031A00B7A28210028
:100110000E120E108E100E118E11813157292200F1
:100120000E108E10080022000E118E110800220001
:100130008E100E14080022000E108E1408002200EB
:100140008E110E15080022000E118E1508002000D9
:100150004F14080020004F1008002000DB00BF00F3
:100160000800FA3020003F020319BA280318BA2801
:100170000530BF070800643020003F020319C4287F
:10018000031CC4280530BF0208003F0808002000F7
:10019000CF1408002000CF1008002000DB00C000B2
:1001A0000800FA30200040020319DA280318DA2880
:1001B0000530C00708006430200040020319E4281D
:1001C000031CE4280530C0020800400808008F2006
:1001D000803193202000BF01C0014F14CF1487301D
:1001E0001C0518389C00FC309C05C7309B00BC01E6
:1001F00021009114200091100B178B171C1508007B
:100200003A10911C08292100911C082920003A1459
:1002100020003A1C4F2991103C08031D352932302B
:10022000BC003F08BD004008BE0005303F02031976
:100230002329031C23294F1C212980319720813138
:10024000232980319B200530200040028131031991
:100250003629031C3629CF1C312980319F2081315A
:1002600036298031A32081313629BC030530200096
:100270003D0203193D29031C40290530BD024229D6
:1002800080318F20053020003E02813103194A2938
:10029000031C4D290530BE024F29803193202000D8
:1002A0003308A0003408A1003808FF0009003F30DF
:1002B00020009805CF3018052038980082316B2A2D
:1002C00022008E1221008E120C1520004F11CF112A
:1002D0004F12C301210011140B170B160B178B17AC
:1002E00008004F11CF112100151722008E16200093
:1002F0000C30A0008131A00B7B29000022008E125F
:10030000EE2101302000C3000800200020104F190A
:10031000201408002010CF19201408004108E20022
:100320004208E300E401E5016208A3006308A400B9
:100330006408A5006508A600E830A7000330A800FF
:10034000A901AA018031062020002B08E6002C0814
:10035000E7002D08E8002E08E9006430AB00AC018E
:10036000AD01AE016608A3006708A4006808A500F7
:100370006908A60080311F2020002F08EA003008FD
:10038000EB003108EC003208ED003A30AB00AC0174
:10039000AD01AE016A08A3006B08A4006C08A500BB
:1003A0006D08A60080311F2020002F08DE003008D5
:1003B000DF003108E0003208E1005E08A0005F08BD
:1003C000A100080018104F1EE929FF30A000A1006D
:1003D00008001608A0001708A10008002000181047
:1003E000960197014F12111018140800111C0029D2
:1003F000181011104F168B1400293B1082318B1CE2
:100400000A2A8B102100151F072A1513082A151711
:1004100020003B1420103B18201408008131FD21DE
:1004200020003A1020183A1481313A1CF62943086A
:100430008231031D1D2A8131F6294303031D2C2A15
:100440004F1E252ACF15C301692A8131EE210230C2
:100450002000C3008131F629023043028131031D9F
:10046000F629E22120002008C1002108C200FF0176
:1004700000307F028231031D472A00307F02031DB6
:10048000472A00304202031D472A643041023A12D3
:10049000031D03183A16FF0100307F02031D5A2A7C
:1004A00000307F02031D5A2A75304202031D5A2A6A
:1004B00030304102BA12031D031CBA163A173A1A19
:1004C000BA1E3A133A1F672A4F15CF11682ACF1563
:1004D000C3018131F62921000C128C128331582B73
:1004E00022000C128C12080022008C120C1608003C
:1004F00022000C128C16080022000C168C16080024
:100500007022813160298131712181318521200062
:100510005D1020185D145D18DD105D1CDD14813147
:100520008A2120005D1120185D155D19DD115D1D0A
:10053000DD155D16DD18DD1D5D1282315D1EA12AFF
:10054000852A813185212000DD122018DD168231B7
:10055000DD1EB32A81318E2120002008DB00210816
:10056000DC008231B72A8830DB001330DC005B0806
:10057000A0005C08A100080022000E1600308031A7
:10058000AD20FA308031CD202000CA01CB01080017
:1005900022000E1600308031CD20FA308031AD209F
:1005A0002000CA01CB01080022000E168031BB20BA
:1005B0008031D1202000CA01CB01080022000E1694
:1005C0008031DB208031B1202000CA01CB0108003E
:1005D00022000E168031AA208031CA207D30803161
:1005E000AD207D308031CD202000FE30A0003D3098
:1005F000A1002930A2008231A20BFC2A8231A10B7A
:10060000F92A8231A00BF72A000000000030803167
:10061000AD2000308031CD208031A7208031C7202F
:100620002000CA01CB010800823174222000DE3094
:10063000A0000430A1008331A10B1C2B8331A00B3F
:10064000192B000000008231832220002008C40002
:100650002108C500823178222000DE30A00004305D
:10066000A1008331A10B322B8331A00B2F2B000073
:1006700000008231832220002008C6002108C70024
:1006800082317C222000DE30A0000430A1008331C2
:10069000A10B482B8331A00B452B000000008231B9
:1006A000832220002008C8002108C9008231702A56
:1006B000823180228031E72022000E122000CA0100
:1006C000CB01833114230030200045028331031D08
:1006D0006B2BC8304402CF12031D031CCF16003011
:1006E0004702031D752BC83046024F13031D031C20
:1006F0004F17CF17CF1A4F1FCF1300304902031DDA
:10070000832BC83048025010031D031C5014D01412
:10071000CF1B501CD010D01C932B8231E822823189
:10072000C8228531B92D00304502031D992BC830F0
:1007300044025011031D031C501500304702031DD5
:10074000A32BC8304602D0110319A82B0318D015CB
:1007500050165019D01D501200304902031DB22B03
:10076000C8304802D0120319B72B0318D0165017FF
:10077000501AD01E5013501FC12B8231C822853110
:10078000B92D00304502031DC72BC8304402D013D9
:100790000319CC2B0318D01700304702031DD22BAE
:1007A000C830460251100319D72B03185114D11425
:1007B000D01B511CD11000304902031DE12BC83061
:1007C00048025111031D031C5115D115D118511D9B
:1007D000D111D11DEF2B8231BC228531B92D0030D2
:1007E0004502031DF52BC830440251120319FA2BA0
:1007F00003185116003047028431031D012CC83004
:100800004602D112031D031CD1165117511AD11ED5
:100810005113003049028431031D102CC8304802A6
:10082000D1130319152C0318D1175214511BD11FC2
:100830005210521C212C8231E8228231C82285318B
:10084000B92D00304502031D272CC8304402D210B8
:10085000031D031CD21400304702031D312CC83085
:1008600046025211031D031C5215D215D218521DF7
:10087000D21100304902031D3F2CC83048025212E9
:100880000319442C03185216D216D219521ED21232
:10089000D21E502C8231E8228231C8228531B92DF6
:1008A00000304502031D562CC83044025213031970
:1008B0005B2C0318521700304702031D612CC8300F
:1008C0004602D213031D031CD2175314521BD21F0E
:1008D000531000304902031D6F2CC8304802D3105A
:1008E000031D031CD31453155318D31C5311531D4C
:1008F0007D2C8231BC228531B92D01304502031D8A
:10090000832C5E304402D311031D031CD315013028
:100910004702031D8D2C5E3046025312031D031C3B
:100920005316D316D319531ED31201304902031D97
:100930009B2C5E3048025313031D031C5317D3171F
:10094000D31A531FD313D31FAD2C8031BB2080315A
:10095000DB2022000E168531B92D01304502031D22
:10096000B32C5E3044025410031D031C5414013098
:100970004702031DBD2C5E304602D4100319C22C61
:100980000318D41454155418D41C541101304902BE
:10099000031DCC2C5E304802D4110319D12C03184E
:1009A000D41554165419D41D5412541EDB2C823104
:1009B000DE228531B92D01304502031DE12C5E3068
:1009C0004402D4120319E62C0318D416013047024E
:1009D000031DEC2C5E30460254130319F12C03184E
:1009E0005417D417D41A541FD41301304902031DCD
:1009F000FB2C5E3048025510031D031C5514D51402
:100A0000D41B551CD5108531D51C0A2D8231D4221A
:100A10008531B92D01304502031D102D5E30440291
:100A200055110319152D0318551501304702031DE3
:100A30001B2D5E304602D511031D031CD51555161E
:100A40005519D51D551201304902031D292D5E305F
:100A50004802D51203192E2D0318D5165517551A0D
:100A6000D51E5513551F3C2D8031BB208031DB2016
:100A700022000E168531B92D01304502031D422D8D
:100A80005E304402D513031D031CD5170130470205
:100A9000031D4C2D5E3046025610031D031C5614D8
:100AA000D614D51B561CD61001304902031D5A2DF1
:100AB0005E304802561103195F2D03185615D615DE
:100AC000D618561DD611D61D692D8231DE228531EC
:100AD000B92D01304502031D6F2D5E3044025612C0
:100AE0000319742D0318561601304702031D7A2D81
:100AF0005E304602D612031D031CD6165617561A30
:100B0000D61E561301304902031D882D5E3048025F
:100B1000D613031D031CD6175714561BD61F571088
:100B2000571C962D8231D4228531B92D8031C520B4
:100B30002000CC008031C5202000CD004C084D02A3
:100B400085310319AD2D0318AD2D8031C52020004E
:100B5000CE008031CD208531B32D8031E5202000BD
:100B6000CC008031AD208031B1208031D1202200F5
:100B70000E122000CA0A0319CB0A2C304A02A00028
:100B80004B0320048331031D612B8231E822823123
:0C0B9000C8222000CA01CB018331612B78
:020000040001F9
:02000E00C40923
:02001000FF3EB1
:00000001FF
